{
  "contractName": "RealEstateOwnership",
  "abi": [
    {
      "inputs": [],
      "stateMutability": "nonpayable",
      "type": "constructor"
    },
    {
      "anonymous": false,
      "inputs": [
        {
          "indexed": true,
          "internalType": "address",
          "name": "owner",
          "type": "address"
        },
        {
          "indexed": true,
          "internalType": "address",
          "name": "approved",
          "type": "address"
        },
        {
          "indexed": true,
          "internalType": "uint256",
          "name": "tokenId",
          "type": "uint256"
        }
      ],
      "name": "Approval",
      "type": "event"
    },
    {
      "anonymous": false,
      "inputs": [
        {
          "indexed": true,
          "internalType": "address",
          "name": "owner",
          "type": "address"
        },
        {
          "indexed": true,
          "internalType": "address",
          "name": "operator",
          "type": "address"
        },
        {
          "indexed": false,
          "internalType": "bool",
          "name": "approved",
          "type": "bool"
        }
      ],
      "name": "ApprovalForAll",
      "type": "event"
    },
    {
      "anonymous": false,
      "inputs": [
        {
          "indexed": true,
          "internalType": "address",
          "name": "from",
          "type": "address"
        },
        {
          "indexed": true,
          "internalType": "address",
          "name": "to",
          "type": "address"
        },
        {
          "indexed": true,
          "internalType": "uint256",
          "name": "tokenId",
          "type": "uint256"
        }
      ],
      "name": "Transfer",
      "type": "event"
    },
    {
      "inputs": [
        {
          "internalType": "address",
          "name": "to",
          "type": "address"
        },
        {
          "internalType": "uint256",
          "name": "tokenId",
          "type": "uint256"
        }
      ],
      "name": "approve",
      "outputs": [],
      "stateMutability": "nonpayable",
      "type": "function"
    },
    {
      "inputs": [
        {
          "internalType": "address",
          "name": "owner",
          "type": "address"
        }
      ],
      "name": "balanceOf",
      "outputs": [
        {
          "internalType": "uint256",
          "name": "",
          "type": "uint256"
        }
      ],
      "stateMutability": "view",
      "type": "function"
    },
    {
      "inputs": [
        {
          "internalType": "uint256",
          "name": "tokenId",
          "type": "uint256"
        }
      ],
      "name": "getApproved",
      "outputs": [
        {
          "internalType": "address",
          "name": "",
          "type": "address"
        }
      ],
      "stateMutability": "view",
      "type": "function"
    },
    {
      "inputs": [
        {
          "internalType": "address",
          "name": "owner",
          "type": "address"
        },
        {
          "internalType": "address",
          "name": "operator",
          "type": "address"
        }
      ],
      "name": "isApprovedForAll",
      "outputs": [
        {
          "internalType": "bool",
          "name": "",
          "type": "bool"
        }
      ],
      "stateMutability": "view",
      "type": "function"
    },
    {
      "inputs": [],
      "name": "name",
      "outputs": [
        {
          "internalType": "string",
          "name": "",
          "type": "string"
        }
      ],
      "stateMutability": "view",
      "type": "function"
    },
    {
      "inputs": [
        {
          "internalType": "uint256",
          "name": "tokenId",
          "type": "uint256"
        }
      ],
      "name": "ownerOf",
      "outputs": [
        {
          "internalType": "address",
          "name": "",
          "type": "address"
        }
      ],
      "stateMutability": "view",
      "type": "function"
    },
    {
      "inputs": [
        {
          "internalType": "address",
          "name": "from",
          "type": "address"
        },
        {
          "internalType": "address",
          "name": "to",
          "type": "address"
        },
        {
          "internalType": "uint256",
          "name": "tokenId",
          "type": "uint256"
        }
      ],
      "name": "safeTransferFrom",
      "outputs": [],
      "stateMutability": "nonpayable",
      "type": "function"
    },
    {
      "inputs": [
        {
          "internalType": "address",
          "name": "from",
          "type": "address"
        },
        {
          "internalType": "address",
          "name": "to",
          "type": "address"
        },
        {
          "internalType": "uint256",
          "name": "tokenId",
          "type": "uint256"
        },
        {
          "internalType": "bytes",
          "name": "_data",
          "type": "bytes"
        }
      ],
      "name": "safeTransferFrom",
      "outputs": [],
      "stateMutability": "nonpayable",
      "type": "function"
    },
    {
      "inputs": [
        {
          "internalType": "address",
          "name": "operator",
          "type": "address"
        },
        {
          "internalType": "bool",
          "name": "approved",
          "type": "bool"
        }
      ],
      "name": "setApprovalForAll",
      "outputs": [],
      "stateMutability": "nonpayable",
      "type": "function"
    },
    {
      "inputs": [
        {
          "internalType": "bytes4",
          "name": "interfaceId",
          "type": "bytes4"
        }
      ],
      "name": "supportsInterface",
      "outputs": [
        {
          "internalType": "bool",
          "name": "",
          "type": "bool"
        }
      ],
      "stateMutability": "view",
      "type": "function"
    },
    {
      "inputs": [],
      "name": "symbol",
      "outputs": [
        {
          "internalType": "string",
          "name": "",
          "type": "string"
        }
      ],
      "stateMutability": "view",
      "type": "function"
    },
    {
      "inputs": [
        {
          "internalType": "uint256",
          "name": "tokenId",
          "type": "uint256"
        }
      ],
      "name": "tokenURI",
      "outputs": [
        {
          "internalType": "string",
          "name": "",
          "type": "string"
        }
      ],
      "stateMutability": "view",
      "type": "function"
    },
    {
      "inputs": [
        {
          "internalType": "address",
          "name": "from",
          "type": "address"
        },
        {
          "internalType": "address",
          "name": "to",
          "type": "address"
        },
        {
          "internalType": "uint256",
          "name": "tokenId",
          "type": "uint256"
        }
      ],
      "name": "transferFrom",
      "outputs": [],
      "stateMutability": "nonpayable",
      "type": "function"
    },
    {
      "inputs": [
        {
          "internalType": "uint256",
          "name": "_tokenID",
          "type": "uint256"
        }
      ],
      "name": "createRealEstateToken",
      "outputs": [],
      "stateMutability": "nonpayable",
      "type": "function"
    }
  ],
  "bytecode": "0x60806040523480156200001157600080fd5b506040518060400160405280600f81526020017f5265616c20457374617465204e465400000000000000000000000000000000008152506040518060400160405280600381526020017f52454f0000000000000000000000000000000000000000000000000000000000815250816000908051906020019062000096929190620003a6565b508060019080519060200190620000af929190620003a6565b50505033600660006101000a81548173ffffffffffffffffffffffffffffffffffffffff021916908373ffffffffffffffffffffffffffffffffffffffff16021790555062000130600660009054906101000a900473ffffffffffffffffffffffffffffffffffffffff166835af3377cae72337e66200013660201b60201c565b62000646565b600073ffffffffffffffffffffffffffffffffffffffff168273ffffffffffffffffffffffffffffffffffffffff161415620001a9576040517f08c379a0000000000000000000000000000000000000000000000000000000008152600401620001a090620004b7565b60405180910390fd5b620001ba816200033060201b60201c565b15620001fd576040517f08c379a0000000000000000000000000000000000000000000000000000000008152600401620001f49062000529565b60405180910390fd5b62000211600083836200039c60201b60201c565b6001600360008473ffffffffffffffffffffffffffffffffffffffff1673ffffffffffffffffffffffffffffffffffffffff168152602001908152602001600020600082825462000263919062000584565b92505081905550816002600083815260200190815260200160002060006101000a81548173ffffffffffffffffffffffffffffffffffffffff021916908373ffffffffffffffffffffffffffffffffffffffff160217905550808273ffffffffffffffffffffffffffffffffffffffff16600073ffffffffffffffffffffffffffffffffffffffff167fddf252ad1be2c89b69c2b068fc378daa952ba7f163c4a11628f55a4df523b3ef60405160405180910390a46200032c60008383620003a160201b60201c565b5050565b60008073ffffffffffffffffffffffffffffffffffffffff166002600084815260200190815260200160002060009054906101000a900473ffffffffffffffffffffffffffffffffffffffff1673ffffffffffffffffffffffffffffffffffffffff1614159050919050565b505050565b505050565b828054620003b49062000610565b90600052602060002090601f016020900481019282620003d8576000855562000424565b82601f10620003f357805160ff191683800117855562000424565b8280016001018555821562000424579182015b828111156200042357825182559160200191906001019062000406565b5b50905062000433919062000437565b5090565b5b808211156200045257600081600090555060010162000438565b5090565b600082825260208201905092915050565b7f4552433732313a206d696e7420746f20746865207a65726f2061646472657373600082015250565b60006200049f60208362000456565b9150620004ac8262000467565b602082019050919050565b60006020820190508181036000830152620004d28162000490565b9050919050565b7f4552433732313a20746f6b656e20616c7265616479206d696e74656400000000600082015250565b600062000511601c8362000456565b91506200051e82620004d9565b602082019050919050565b60006020820190508181036000830152620005448162000502565b9050919050565b6000819050919050565b7f4e487b7100000000000000000000000000000000000000000000000000000000600052601160045260246000fd5b600062000591826200054b565b91506200059e836200054b565b9250827fffffffffffffffffffffffffffffffffffffffffffffffffffffffffffffffff03821115620005d657620005d562000555565b5b828201905092915050565b7f4e487b7100000000000000000000000000000000000000000000000000000000600052602260045260246000fd5b600060028204905060018216806200062957607f821691505b6020821081141562000640576200063f620005e1565b5b50919050565b6126d580620006566000396000f3fe608060405234801561001057600080fd5b50600436106100ea5760003560e01c80636352211e1161008c578063a22cb46511610066578063a22cb4651461025b578063b88d4fde14610277578063c87b56dd14610293578063e985e9c5146102c3576100ea565b80636352211e146101dd57806370a082311461020d57806395d89b411461023d576100ea565b8063095ea7b3116100c8578063095ea7b31461016d57806323b872dd1461018957806326c488b6146101a557806342842e0e146101c1576100ea565b806301ffc9a7146100ef57806306fdde031461011f578063081812fc1461013d575b600080fd5b61010960048036038101906101049190611658565b6102f3565b60405161011691906116a0565b60405180910390f35b6101276103d5565b6040516101349190611754565b60405180910390f35b610157600480360381019061015291906117ac565b610467565b604051610164919061181a565b60405180910390f35b61018760048036038101906101829190611861565b6104ec565b005b6101a3600480360381019061019e91906118a1565b610604565b005b6101bf60048036038101906101ba91906117ac565b610664565b005b6101db60048036038101906101d691906118a1565b610671565b005b6101f760048036038101906101f291906117ac565b610691565b604051610204919061181a565b60405180910390f35b610227600480360381019061022291906118f4565b610743565b6040516102349190611930565b60405180910390f35b6102456107fb565b6040516102529190611754565b60405180910390f35b61027560048036038101906102709190611977565b61088d565b005b610291600480360381019061028c9190611aec565b6108a3565b005b6102ad60048036038101906102a891906117ac565b610905565b6040516102ba9190611754565b60405180910390f35b6102dd60048036038101906102d89190611b6f565b6109ac565b6040516102ea91906116a0565b60405180910390f35b60007f80ac58cd000000000000000000000000000000000000000000000000000000007bffffffffffffffffffffffffffffffffffffffffffffffffffffffff1916827bffffffffffffffffffffffffffffffffffffffffffffffffffffffff191614806103be57507f5b5e139f000000000000000000000000000000000000000000000000000000007bffffffffffffffffffffffffffffffffffffffffffffffffffffffff1916827bffffffffffffffffffffffffffffffffffffffffffffffffffffffff1916145b806103ce57506103cd82610a40565b5b9050919050565b6060600080546103e490611bde565b80601f016020809104026020016040519081016040528092919081815260200182805461041090611bde565b801561045d5780601f106104325761010080835404028352916020019161045d565b820191906000526020600020905b81548152906001019060200180831161044057829003601f168201915b5050505050905090565b600061047282610aaa565b6104b1576040517f08c379a00000000000000000000000000000000000000000000000000000000081526004016104a890611c82565b60405180910390fd5b6004600083815260200190815260200160002060009054906101000a900473ffffffffffffffffffffffffffffffffffffffff169050919050565b60006104f782610691565b90508073ffffffffffffffffffffffffffffffffffffffff168373ffffffffffffffffffffffffffffffffffffffff161415610568576040517f08c379a000000000000000000000000000000000000000000000000000000000815260040161055f90611d14565b60405180910390fd5b8073ffffffffffffffffffffffffffffffffffffffff16610587610b16565b73ffffffffffffffffffffffffffffffffffffffff1614806105b657506105b5816105b0610b16565b6109ac565b5b6105f5576040517f08c379a00000000000000000000000000000000000000000000000000000000081526004016105ec90611da6565b60405180910390fd5b6105ff8383610b1e565b505050565b61061561060f610b16565b82610bd7565b610654576040517f08c379a000000000000000000000000000000000000000000000000000000000815260040161064b90611e38565b60405180910390fd5b61065f838383610cb5565b505050565b61066e3382610f1c565b50565b61068c838383604051806020016040528060008152506108a3565b505050565b6000806002600084815260200190815260200160002060009054906101000a900473ffffffffffffffffffffffffffffffffffffffff169050600073ffffffffffffffffffffffffffffffffffffffff168173ffffffffffffffffffffffffffffffffffffffff16141561073a576040517f08c379a000000000000000000000000000000000000000000000000000000000815260040161073190611eca565b60405180910390fd5b80915050919050565b60008073ffffffffffffffffffffffffffffffffffffffff168273ffffffffffffffffffffffffffffffffffffffff1614156107b4576040517f08c379a00000000000000000000000000000000000000000000000000000000081526004016107ab90611f5c565b60405180910390fd5b600360008373ffffffffffffffffffffffffffffffffffffffff1673ffffffffffffffffffffffffffffffffffffffff168152602001908152602001600020549050919050565b60606001805461080a90611bde565b80601f016020809104026020016040519081016040528092919081815260200182805461083690611bde565b80156108835780601f1061085857610100808354040283529160200191610883565b820191906000526020600020905b81548152906001019060200180831161086657829003601f168201915b5050505050905090565b61089f610898610b16565b83836110f6565b5050565b6108b46108ae610b16565b83610bd7565b6108f3576040517f08c379a00000000000000000000000000000000000000000000000000000000081526004016108ea90611e38565b60405180910390fd5b6108ff84848484611263565b50505050565b606061091082610aaa565b61094f576040517f08c379a000000000000000000000000000000000000000000000000000000000815260040161094690611fee565b60405180910390fd5b60006109596112bf565b9050600081511161097957604051806020016040528060008152506109a4565b80610983846112d6565b60405160200161099492919061204a565b6040516020818303038152906040525b915050919050565b6000600560008473ffffffffffffffffffffffffffffffffffffffff1673ffffffffffffffffffffffffffffffffffffffff16815260200190815260200160002060008373ffffffffffffffffffffffffffffffffffffffff1673ffffffffffffffffffffffffffffffffffffffff16815260200190815260200160002060009054906101000a900460ff16905092915050565b60007f01ffc9a7000000000000000000000000000000000000000000000000000000007bffffffffffffffffffffffffffffffffffffffffffffffffffffffff1916827bffffffffffffffffffffffffffffffffffffffffffffffffffffffff1916149050919050565b60008073ffffffffffffffffffffffffffffffffffffffff166002600084815260200190815260200160002060009054906101000a900473ffffffffffffffffffffffffffffffffffffffff1673ffffffffffffffffffffffffffffffffffffffff1614159050919050565b600033905090565b816004600083815260200190815260200160002060006101000a81548173ffffffffffffffffffffffffffffffffffffffff021916908373ffffffffffffffffffffffffffffffffffffffff160217905550808273ffffffffffffffffffffffffffffffffffffffff16610b9183610691565b73ffffffffffffffffffffffffffffffffffffffff167f8c5be1e5ebec7d5bd14f71427d1e84f3dd0314c0f7b2291e5b200ac8c7c3b92560405160405180910390a45050565b6000610be282610aaa565b610c21576040517f08c379a0000000000000000000000000000000000000000000000000000000008152600401610c18906120e0565b60405180910390fd5b6000610c2c83610691565b90508073ffffffffffffffffffffffffffffffffffffffff168473ffffffffffffffffffffffffffffffffffffffff161480610c9b57508373ffffffffffffffffffffffffffffffffffffffff16610c8384610467565b73ffffffffffffffffffffffffffffffffffffffff16145b80610cac5750610cab81856109ac565b5b91505092915050565b8273ffffffffffffffffffffffffffffffffffffffff16610cd582610691565b73ffffffffffffffffffffffffffffffffffffffff1614610d2b576040517f08c379a0000000000000000000000000000000000000000000000000000000008152600401610d2290612172565b60405180910390fd5b600073ffffffffffffffffffffffffffffffffffffffff168273ffffffffffffffffffffffffffffffffffffffff161415610d9b576040517f08c379a0000000000000000000000000000000000000000000000000000000008152600401610d9290612204565b60405180910390fd5b610da6838383611437565b610db1600082610b1e565b6001600360008573ffffffffffffffffffffffffffffffffffffffff1673ffffffffffffffffffffffffffffffffffffffff1681526020019081526020016000206000828254610e019190612253565b925050819055506001600360008473ffffffffffffffffffffffffffffffffffffffff1673ffffffffffffffffffffffffffffffffffffffff1681526020019081526020016000206000828254610e589190612287565b92505081905550816002600083815260200190815260200160002060006101000a81548173ffffffffffffffffffffffffffffffffffffffff021916908373ffffffffffffffffffffffffffffffffffffffff160217905550808273ffffffffffffffffffffffffffffffffffffffff168473ffffffffffffffffffffffffffffffffffffffff167fddf252ad1be2c89b69c2b068fc378daa952ba7f163c4a11628f55a4df523b3ef60405160405180910390a4610f1783838361143c565b505050565b600073ffffffffffffffffffffffffffffffffffffffff168273ffffffffffffffffffffffffffffffffffffffff161415610f8c576040517f08c379a0000000000000000000000000000000000000000000000000000000008152600401610f8390612329565b60405180910390fd5b610f9581610aaa565b15610fd5576040517f08c379a0000000000000000000000000000000000000000000000000000000008152600401610fcc90612395565b60405180910390fd5b610fe160008383611437565b6001600360008473ffffffffffffffffffffffffffffffffffffffff1673ffffffffffffffffffffffffffffffffffffffff16815260200190815260200160002060008282546110319190612287565b92505081905550816002600083815260200190815260200160002060006101000a81548173ffffffffffffffffffffffffffffffffffffffff021916908373ffffffffffffffffffffffffffffffffffffffff160217905550808273ffffffffffffffffffffffffffffffffffffffff16600073ffffffffffffffffffffffffffffffffffffffff167fddf252ad1be2c89b69c2b068fc378daa952ba7f163c4a11628f55a4df523b3ef60405160405180910390a46110f26000838361143c565b5050565b8173ffffffffffffffffffffffffffffffffffffffff168373ffffffffffffffffffffffffffffffffffffffff161415611165576040517f08c379a000000000000000000000000000000000000000000000000000000000815260040161115c90612401565b60405180910390fd5b80600560008573ffffffffffffffffffffffffffffffffffffffff1673ffffffffffffffffffffffffffffffffffffffff16815260200190815260200160002060008473ffffffffffffffffffffffffffffffffffffffff1673ffffffffffffffffffffffffffffffffffffffff16815260200190815260200160002060006101000a81548160ff0219169083151502179055508173ffffffffffffffffffffffffffffffffffffffff168373ffffffffffffffffffffffffffffffffffffffff167f17307eab39ab6107e8899845ad3d59bd9653f200f220920489ca2b5937696c318360405161125691906116a0565b60405180910390a3505050565b61126e848484610cb5565b61127a84848484611441565b6112b9576040517f08c379a00000000000000000000000000000000000000000000000000000000081526004016112b090612493565b60405180910390fd5b50505050565b606060405180602001604052806000815250905090565b6060600082141561131e576040518060400160405280600181526020017f30000000000000000000000000000000000000000000000000000000000000008152509050611432565b600082905060005b60008214611350578080611339906124b3565b915050600a82611349919061252b565b9150611326565b60008167ffffffffffffffff81111561136c5761136b6119c1565b5b6040519080825280601f01601f19166020018201604052801561139e5781602001600182028036833780820191505090505b5090505b6000851461142b576001826113b79190612253565b9150600a856113c6919061255c565b60306113d29190612287565b60f81b8183815181106113e8576113e761258d565b5b60200101907effffffffffffffffffffffffffffffffffffffffffffffffffffffffffffff1916908160001a905350600a85611424919061252b565b94506113a2565b8093505050505b919050565b505050565b505050565b60006114628473ffffffffffffffffffffffffffffffffffffffff166115c9565b156115bc578373ffffffffffffffffffffffffffffffffffffffff1663150b7a0261148b610b16565b8786866040518563ffffffff1660e01b81526004016114ad9493929190612611565b6020604051808303816000875af19250505080156114e957506040513d601f19601f820116820180604052508101906114e69190612672565b60015b61156c573d8060008114611519576040519150601f19603f3d011682016040523d82523d6000602084013e61151e565b606091505b50600081511415611564576040517f08c379a000000000000000000000000000000000000000000000000000000000815260040161155b90612493565b60405180910390fd5b805181602001fd5b63150b7a0260e01b7bffffffffffffffffffffffffffffffffffffffffffffffffffffffff1916817bffffffffffffffffffffffffffffffffffffffffffffffffffffffff1916149150506115c1565b600190505b949350505050565b6000808273ffffffffffffffffffffffffffffffffffffffff163b119050919050565b6000604051905090565b600080fd5b600080fd5b60007fffffffff0000000000000000000000000000000000000000000000000000000082169050919050565b61163581611600565b811461164057600080fd5b50565b6000813590506116528161162c565b92915050565b60006020828403121561166e5761166d6115f6565b5b600061167c84828501611643565b91505092915050565b60008115159050919050565b61169a81611685565b82525050565b60006020820190506116b56000830184611691565b92915050565b600081519050919050565b600082825260208201905092915050565b60005b838110156116f55780820151818401526020810190506116da565b83811115611704576000848401525b50505050565b6000601f19601f8301169050919050565b6000611726826116bb565b61173081856116c6565b93506117408185602086016116d7565b6117498161170a565b840191505092915050565b6000602082019050818103600083015261176e818461171b565b905092915050565b6000819050919050565b61178981611776565b811461179457600080fd5b50565b6000813590506117a681611780565b92915050565b6000602082840312156117c2576117c16115f6565b5b60006117d084828501611797565b91505092915050565b600073ffffffffffffffffffffffffffffffffffffffff82169050919050565b6000611804826117d9565b9050919050565b611814816117f9565b82525050565b600060208201905061182f600083018461180b565b92915050565b61183e816117f9565b811461184957600080fd5b50565b60008135905061185b81611835565b92915050565b60008060408385031215611878576118776115f6565b5b60006118868582860161184c565b925050602061189785828601611797565b9150509250929050565b6000806000606084860312156118ba576118b96115f6565b5b60006118c88682870161184c565b93505060206118d98682870161184c565b92505060406118ea86828701611797565b9150509250925092565b60006020828403121561190a576119096115f6565b5b60006119188482850161184c565b91505092915050565b61192a81611776565b82525050565b60006020820190506119456000830184611921565b92915050565b61195481611685565b811461195f57600080fd5b50565b6000813590506119718161194b565b92915050565b6000806040838503121561198e5761198d6115f6565b5b600061199c8582860161184c565b92505060206119ad85828601611962565b9150509250929050565b600080fd5b600080fd5b7f4e487b7100000000000000000000000000000000000000000000000000000000600052604160045260246000fd5b6119f98261170a565b810181811067ffffffffffffffff82111715611a1857611a176119c1565b5b80604052505050565b6000611a2b6115ec565b9050611a3782826119f0565b919050565b600067ffffffffffffffff821115611a5757611a566119c1565b5b611a608261170a565b9050602081019050919050565b82818337600083830152505050565b6000611a8f611a8a84611a3c565b611a21565b905082815260208101848484011115611aab57611aaa6119bc565b5b611ab6848285611a6d565b509392505050565b600082601f830112611ad357611ad26119b7565b5b8135611ae3848260208601611a7c565b91505092915050565b60008060008060808587031215611b0657611b056115f6565b5b6000611b148782880161184c565b9450506020611b258782880161184c565b9350506040611b3687828801611797565b925050606085013567ffffffffffffffff811115611b5757611b566115fb565b5b611b6387828801611abe565b91505092959194509250565b60008060408385031215611b8657611b856115f6565b5b6000611b948582860161184c565b9250506020611ba58582860161184c565b9150509250929050565b7f4e487b7100000000000000000000000000000000000000000000000000000000600052602260045260246000fd5b60006002820490506001821680611bf657607f821691505b60208210811415611c0a57611c09611baf565b5b50919050565b7f4552433732313a20617070726f76656420717565727920666f72206e6f6e657860008201527f697374656e7420746f6b656e0000000000000000000000000000000000000000602082015250565b6000611c6c602c836116c6565b9150611c7782611c10565b604082019050919050565b60006020820190508181036000830152611c9b81611c5f565b9050919050565b7f4552433732313a20617070726f76616c20746f2063757272656e74206f776e6560008201527f7200000000000000000000000000000000000000000000000000000000000000602082015250565b6000611cfe6021836116c6565b9150611d0982611ca2565b604082019050919050565b60006020820190508181036000830152611d2d81611cf1565b9050919050565b7f4552433732313a20617070726f76652063616c6c6572206973206e6f74206f7760008201527f6e6572206e6f7220617070726f76656420666f7220616c6c0000000000000000602082015250565b6000611d906038836116c6565b9150611d9b82611d34565b604082019050919050565b60006020820190508181036000830152611dbf81611d83565b9050919050565b7f4552433732313a207472616e736665722063616c6c6572206973206e6f74206f60008201527f776e6572206e6f7220617070726f766564000000000000000000000000000000602082015250565b6000611e226031836116c6565b9150611e2d82611dc6565b604082019050919050565b60006020820190508181036000830152611e5181611e15565b9050919050565b7f4552433732313a206f776e657220717565727920666f72206e6f6e657869737460008201527f656e7420746f6b656e0000000000000000000000000000000000000000000000602082015250565b6000611eb46029836116c6565b9150611ebf82611e58565b604082019050919050565b60006020820190508181036000830152611ee381611ea7565b9050919050565b7f4552433732313a2062616c616e636520717565727920666f7220746865207a6560008201527f726f206164647265737300000000000000000000000000000000000000000000602082015250565b6000611f46602a836116c6565b9150611f5182611eea565b604082019050919050565b60006020820190508181036000830152611f7581611f39565b9050919050565b7f4552433732314d657461646174613a2055524920717565727920666f72206e6f60008201527f6e6578697374656e7420746f6b656e0000000000000000000000000000000000602082015250565b6000611fd8602f836116c6565b9150611fe382611f7c565b604082019050919050565b6000602082019050818103600083015261200781611fcb565b9050919050565b600081905092915050565b6000612024826116bb565b61202e818561200e565b935061203e8185602086016116d7565b80840191505092915050565b60006120568285612019565b91506120628284612019565b91508190509392505050565b7f4552433732313a206f70657261746f7220717565727920666f72206e6f6e657860008201527f697374656e7420746f6b656e0000000000000000000000000000000000000000602082015250565b60006120ca602c836116c6565b91506120d58261206e565b604082019050919050565b600060208201905081810360008301526120f9816120bd565b9050919050565b7f4552433732313a207472616e736665722066726f6d20696e636f72726563742060008201527f6f776e6572000000000000000000000000000000000000000000000000000000602082015250565b600061215c6025836116c6565b915061216782612100565b604082019050919050565b6000602082019050818103600083015261218b8161214f565b9050919050565b7f4552433732313a207472616e7366657220746f20746865207a65726f2061646460008201527f7265737300000000000000000000000000000000000000000000000000000000602082015250565b60006121ee6024836116c6565b91506121f982612192565b604082019050919050565b6000602082019050818103600083015261221d816121e1565b9050919050565b7f4e487b7100000000000000000000000000000000000000000000000000000000600052601160045260246000fd5b600061225e82611776565b915061226983611776565b92508282101561227c5761227b612224565b5b828203905092915050565b600061229282611776565b915061229d83611776565b9250827fffffffffffffffffffffffffffffffffffffffffffffffffffffffffffffffff038211156122d2576122d1612224565b5b828201905092915050565b7f4552433732313a206d696e7420746f20746865207a65726f2061646472657373600082015250565b60006123136020836116c6565b915061231e826122dd565b602082019050919050565b6000602082019050818103600083015261234281612306565b9050919050565b7f4552433732313a20746f6b656e20616c7265616479206d696e74656400000000600082015250565b600061237f601c836116c6565b915061238a82612349565b602082019050919050565b600060208201905081810360008301526123ae81612372565b9050919050565b7f4552433732313a20617070726f766520746f2063616c6c657200000000000000600082015250565b60006123eb6019836116c6565b91506123f6826123b5565b602082019050919050565b6000602082019050818103600083015261241a816123de565b9050919050565b7f4552433732313a207472616e7366657220746f206e6f6e20455243373231526560008201527f63656976657220696d706c656d656e7465720000000000000000000000000000602082015250565b600061247d6032836116c6565b915061248882612421565b604082019050919050565b600060208201905081810360008301526124ac81612470565b9050919050565b60006124be82611776565b91507fffffffffffffffffffffffffffffffffffffffffffffffffffffffffffffffff8214156124f1576124f0612224565b5b600182019050919050565b7f4e487b7100000000000000000000000000000000000000000000000000000000600052601260045260246000fd5b600061253682611776565b915061254183611776565b925082612551576125506124fc565b5b828204905092915050565b600061256782611776565b915061257283611776565b925082612582576125816124fc565b5b828206905092915050565b7f4e487b7100000000000000000000000000000000000000000000000000000000600052603260045260246000fd5b600081519050919050565b600082825260208201905092915050565b60006125e3826125bc565b6125ed81856125c7565b93506125fd8185602086016116d7565b6126068161170a565b840191505092915050565b6000608082019050612626600083018761180b565b612633602083018661180b565b6126406040830185611921565b818103606083015261265281846125d8565b905095945050505050565b60008151905061266c8161162c565b92915050565b600060208284031215612688576126876115f6565b5b60006126968482850161265d565b9150509291505056fea2646970667358221220d518707359547ab9efea3f4090a2b47ca9fc6f584ecf6f17e2343465f8343aa264736f6c634300080b0033",
  "immutableReferences": {},
  "source": "// SPDX-License-Identifier: MIT\r\npragma solidity ^0.8.0;\r\n\r\nimport \"./ERC721.sol\";\r\n\r\ncontract RealEstateOwnership is ERC721(\"Real Estate NFT\", \"REO\") {\r\n    // Identify Owner of the contract\r\n    address owner;\r\n\r\n    constructor() {\r\n        owner = msg.sender;\r\n        _mint(owner, 990302001800400812006);\r\n    }\r\n\r\n    // Create a function to mint tokens with a standard ID syntax\r\n    // Token ID should include bathrooms, beds, square feet (area), zip code, year built.\r\n    // Potential to add city, state, country, and others however this would be difficut with only integers\r\n\r\n    function createRealEstateToken(uint256 _tokenID) public {\r\n        // Syntax should go as follows, two 9s for padding (Exactly similar houses for example), Beds (2), Bathrooms (2),\r\n        // Sqft (6), zip (5), year built (4). 21 digits, 000000000000000000000\r\n        // Example: 3 beds, 2 baths, 1800 sqft, 40081 zip, built in 2006 would equate to:\r\n        // 990302001800400812006\r\n\r\n        // Require Values fit Syntax\r\n        // Create ID following syntax\r\n        _mint(msg.sender, _tokenID);\r\n    }\r\n}\r\n",
  "sourcePath": "C:\\Users\\roone\\Desktop\\Apex\\Enzo\\Real Estate NFT\\my-app\\contracts\\RealEstateOwnership.sol",
  "compiler": {
    "name": "solc",
    "version": "0.8.11+commit.d7f03943.Emscripten.clang"
  },
  "schemaVersion": "3.4.4",
  "updatedAt": "2022-02-18T00:16:20.672Z",
  "devdoc": {
    "kind": "dev",
    "methods": {
      "approve(address,uint256)": {
        "details": "See {IERC721-approve}."
      },
      "balanceOf(address)": {
        "details": "See {IERC721-balanceOf}."
      },
      "getApproved(uint256)": {
        "details": "See {IERC721-getApproved}."
      },
      "isApprovedForAll(address,address)": {
        "details": "See {IERC721-isApprovedForAll}."
      },
      "name()": {
        "details": "See {IERC721Metadata-name}."
      },
      "ownerOf(uint256)": {
        "details": "See {IERC721-ownerOf}."
      },
      "safeTransferFrom(address,address,uint256)": {
        "details": "See {IERC721-safeTransferFrom}."
      },
      "safeTransferFrom(address,address,uint256,bytes)": {
        "details": "See {IERC721-safeTransferFrom}."
      },
      "setApprovalForAll(address,bool)": {
        "details": "See {IERC721-setApprovalForAll}."
      },
      "supportsInterface(bytes4)": {
        "details": "See {IERC165-supportsInterface}."
      },
      "symbol()": {
        "details": "See {IERC721Metadata-symbol}."
      },
      "tokenURI(uint256)": {
        "details": "See {IERC721Metadata-tokenURI}."
      },
      "transferFrom(address,address,uint256)": {
        "details": "See {IERC721-transferFrom}."
      }
    },
    "version": 1
  },
  "userdoc": {
    "kind": "user",
    "methods": {},
    "version": 1
  }
}